:020000041000EA
:1000000000B5324B212058609868022188439860DF
:10001000D860186158612E4B002199600221596106
:100020000121F02299502B49196001219960352056
:1000300000F044F80222904214D00621196600F024
:1000400034F8196E01211966002018661A6600F04E
:100050002CF8196E196E196E052000F02FF8012189
:100060000842F9D1002199601B49196000215960AB
:100070001A491B48016001219960EB211966A021F2
:10008000196600F012F800219960164914480160C1
:100090000121996001BC002800D000471248134993
:1000A000086003C880F30888084703B5996A0420EC
:1000B0000142FBD001200142F8D103BD02B5186610
:1000C0001866FFF7F2FF186E186E02BD00000240BE
:1000D000000000180000070000035F00212200005C
:1000E000F4000018222000A00001001008ED00E03C
:1000F00000000000000000000000000074B24E7A12
:1001000000200420F7010010C3010010C5010010F9
:10011000C1010010C1010010C1010010C101001097
:10012000C1010010C1010010C1010010C701001081
:10013000C1010010C1010010C9010010CB01001065
:10014000CD010010CD010010CD010010CD01001037
:10015000CD010010CD010010CD010010CD01001027
:10016000CD010010CD010010CD010010CD01001017
:10017000CD010010CD010010CD010010CD01001007
:10018000CD010010CD010010CD010010CD010010F7
:10019000CD010010CD010010CD010010CD010010E7
:1001A000CD010010CD010010CD010010CD010010D7
:1001B000CD010010CD010010CD010010CD010010C7
:1001C00000BE00BE00BE00BE00BE00BE00F04BF888
:1001D000103800BEF2EB88719C720010BC720010E7
:1001E0003402001090A31AE700202149086006C8D5
:1001F00081F3088810471F48006800282FD10DA4FC
:100200000ECC002902D000F012F8F9E71A491B4A77
:10021000002000E001C19142FCD1194988471949E9
:1002200088471949884700BEFDE701C901C29A42C3
:10023000FBD37047BC720010C00000207407002080
:100240007079001000000420000004207079001074
:1002500000100420001004200000000070470B482C
:1002600003F0A6FA0047EFF30580C0B27047000024
:1002700008ED00E0000000D078070020AC2200204C
:10028000BD1800100D030010A919001057560000EA
:1002900006005250ABB36053F86F00100600525086
:1002A000861C030208700010060052505422A29DC2
:1002B0001470001005005250DE65F468707900106B
:1002C000F8B5C04610B5064C2378002B07D1054B76
:1002D000002B02D0044800E000BF0123237010BDB2
:1002E0008008002000000000006D0010044B10B5D5
:1002F000002B03D00349044800E000BF10BDC046F6
:100300000000000084080020006D0010F0B5DE46FB
:1003100057464E464546E0B585B004F03BFB00200D
:1003200000F036FB012000F033FB022000F030FB30
:10033000032000F02DFBD02301221B065A6201325C
:100340005A62554C02325A6204325A62210000202D
:1003500000F0B2F8210005000822002000F0D2F8D9
:10036000210006000822002000F086F92100070085
:100370000822002000F046FA484B32009B46290034
:100380003B0003900090584604F0F8FA06F00EFC8B
:1003900006F024FC424B434D9A469846424B2E00B1
:1003A00099461F00414C06F023FC207006F020FC0B
:1003B0004346187006F01CFC387006F019FC012347
:1003C0009C463B4B01343070E044013701369C427F
:1003D000E9D180268024B60006F00AFC5346185561
:1003E00006F006FC4B46185506F002FC2855013471
:1003F000B442F1D18026F60006F0FAFB4B461855C0
:1004000006F0F6FB28550134B442F5D18023DB0019
:10041000EC18284BEE1806F0EBFB20700134A642D6
:10042000F9D10123D02499462406EFF3108A72B63D
:100430004B46290063611F4A002000F03DF84B46FF
:10044000A36102239846290063610600194A00202F
:1004500000F058F84346A3610233984629006361CF
:100460000700144A002000F007F94346A361043353
:100470009846636129000F4A002000F0C3F9424604
:100480000300A2618AF31088039A31000092584653
:100490003A0004F073FAC8E748020020006D00102B
:1004A0007413002074150020E41B0020641B00203E
:1004B000E41B0020EE050000030070B5012A1ED9E0
:1004C0000800961E760875006D1804881B19040034
:1004D0000230A542F9D1013676008919D20706D536
:1004E0000A789B181A0C04D01B041B0C9B181A0CBE
:1004F000FAD198B21B0A0002184380B270BD002ADC
:10050000EED1F7E703000006000C1B0AF0B5184314
:10051000002A00D19BE0CB0700D59BE000250026F8
:100520001F2A00D8A5E01400203C640901346401AE
:100530000C194F880B88DB198F88DB19CF88DB19E2
:100540000F89DB194F89DB198F89DB19CF89DB19FB
:100550000F8ADB194F8ADB198F8ADB19CF8ADB19E7
:100560000F8BDB194F8BDB198F8BDB19CF8B203176
:10057000DB19C018A142DCD11F231A40012A58D927
:100580002388C018931E012B4DD961884018111F74
:10059000012948D9A1884018911F012943D9E18830
:1005A00040181100083901293DD92189401811004E
:1005B0000A39012937D96189401811000C390129FC
:1005C00031D9A189401811000E3901292BD9E189AF
:1005D000401811001039012925D9218A401811002D
:1005E000123901291FD9618A4018110014390129D3
:1005F00019D9A18A401811001639012913D9E18AA5
:1006000040181100183901290DD9218B401811000B
:100610001A39012907D9618B401811001C390129A9
:1006200001D9A18B40185B0801335B00E41801235A
:100630001A40012A01D123781D434019030C04D02C
:100640000004000CC018030CFAD1012E0CD040BAE3
:1006500080B2F0BD0D7803061B0C000A012618437A
:100660002D02013A01315BE703061B0C000A184317
:10067000EDE70C0082E7C0460300F0B5C646000671
:10068000000C1B0A00B51843002A00D1A3E0CB07D9
:1006900000D5A5E0002398469C461F2A2FD91600B6
:1006A0000D000C00203E760973012035ED18678897
:1006B0002388DB19A788DB19E788DB192789DB1971
:1006C0006789DB19A789DB19E789DB19278ADB1919
:1006D000678ADB19A78ADB19E78ADB19278BDB1905
:1006E000678BDB19A78BDB19E78B2034DB19C0186C
:1006F000A542DCD11F230136760189191A40012A4F
:1007000058D90B88C018931E012B4DD94C8800195D
:10071000141F012C48D98C880019941F012C43D92F
:10072000CC8800191400083C012C3DD90C89001913
:1007300014000A3C012C37D94C89001914000C3CD8
:10074000012C31D98C89001914000E3C012C2BD9B5
:10075000CC8900191400103C012C25D90C8A0019F1
:100760001400123C012C1FD94C8A00191400143CAF
:10077000012C19D98C8A00191400163C012C13D9AC
:10078000CC8A00191400183C012C0DD90C8B0019CF
:1007900014001A3C012C07D94C8B001914001C3C86
:1007A000012C01D98C8B00195B0801335B00C9183F
:1007B00001231A40012A03D142460B781A4390467E
:1007C0004044030C04D00004000CC018030CFAD100
:1007D0006346012B10D040BA80B204BC9046F0BDF5
:1007E0000F7803061B0C000A18433B0298460123AE
:1007F000013A9C46013150E703061B0C000A1843DE
:10080000E9E7C0460300F0B5C6460006000C1B0A27
:1008100000B51843002A00D1A3E0CB0700D5A5E01E
:10082000002398469C461F2A2FD916000D000C0065
:10083000203E760973012035ED1867882388DB197F
:10084000A788DB19E788DB192789DB196789DB199A
:10085000A789DB19E789DB19278ADB19678ADB1986
:10086000A78ADB19E78ADB19278BDB19678BDB1972
:10087000A78BDB19E78B2034DB19C018A542DCD12C
:100880001F230136760189191A40012A58D90B888D
:10089000C018931E012B4DD94C880019141F012C30
:1008A00048D98C880019941F012C43D9CC88001991
:1008B0001400083C012C3DD90C89001914000A3C95
:1008C000012C37D94C89001914000C3C012C31D96A
:1008D0008C89001914000E3C012C2BD9CC890019ED
:1008E0001400103C012C25D90C8A00191400123C6C
:1008F000012C1FD94C8A00191400143C012C19D961
:100900008C8A00191400163C012C13D9CC8A0019CA
:100910001400183C012C0DD90C8B001914001A3C42
:10092000012C07D94C8B001914001C3C012C01D957
:100930008C8B00195B0801335B00C91801231A4036
:10094000012A03D142460B781A4390464044030CD7
:1009500004D00004000CC018030CFAD16346012B2C
:1009600010D040BA80B204BC9046F0BD0F780306A8
:100970001B0C000A18433B0298460123013A9C468F
:10098000013150E703061B0C000A1843E9E7C04693
:100990000123D0228340120693629361094A8300A7
:1009A0009446402263441968C0004A40C021114067
:1009B0008022520113431960034B9C460523604477
:1009C0004360704704C0014000400140F8B5CE4686
:1009D0004746914680B5EFF3108772B6124E3368E2
:1009E000002BFCD0BFF35F8FCB08C55C0724C21877
:1009F000280001230C409446E0401A000240904633
:100A000003420DD1A34062462B431370BFF35F8FA7
:100A10004346336087F310880CBC90469946F8BD76
:100A2000484600F0C3FFC0462C0100D0F8B5474649
:100A3000CE46884680B5EFF3108C72B6214D2C68F7
:100A4000002CFCD0BFF35F8F9A422DD8D408055DEF
:100A5000071907242E001440E640F1071ED5072190
:100A60008946063908E0D408055D07194C462E0072
:100A70001440E640314211D001329342F3D20120BA
:100A80004042BFF35F8F00220E4B1A608CF3108838
:100A9000002811DB0CBC90469946F8BD0123A34009
:100AA0001D4310003D70ECE7BFF35F8F00232B6008
:100AB0008CF31088012040424346002BEAD008986E
:100AC00000F074FF2C0100D00021044B044ABFF356
:100AD0005F8F02C39342FAD17047C046000100D035
:100AE000800100D0044A1078431CDBB2172B00D9D8
:100AF000102313707047C0465002002000B5054B0C
:100B000083B00100009318221F230348FFF78EFFD4
:100B100003B000BD3C6D00101C0C0020024B186897
:100B20008007C00F7047C04600C0064083680B486E
:100B300010B5844661446244090112019A1859189B
:100B400054684B6801209C4201D802D00020C0B2FA
:100B500010BD12680B689A42F9D8F7E7FFFFFF0F44
:100B600040BF002000217047F8B5574645464E4625
:100B7000DE46E0B599460CAB19780DAB1B78050045
:100B800090469A460768002912D1BE7B002E45D0B8
:100B900074003B68A419033C1B195A783100BA73DE
:100BA000002A00D1FA7300229A705A701A7003E07A
:100BB0000E004C006418033C2C4B00229C46AB6892
:100BC00061449C464346090161440B604B464B60BF
:100BD0000A9B8B600B9BCB603B681B199A705A7009
:100BE0001A707B7B9B46002B2CD032005946B8688C
:100BF0007B6898473A68002817D05B4658465B00E8
:100C00005B441419033BA070D118D35C002B00D0B7
:100C100063705B460E707B73B34514D030003CBCF0
:100C200090469946A246AB46F8BD5B465B005B44E6
:100C3000033BD3189E701119125D002A00D05A7020
:100C40005B460B707E7342464B46287D00F094FB5A
:100C5000041E06D05346002B03D13100286800F053
:100C6000EFFD0E9B002BD9D01C70D7E7FFFFFF0FC5
:100C7000F0B5DE4657464E4645460023E0B58DB0FA
:100C80000A93654B8200D45800239B460B9007942F
:100C900000F022FB079C02000B006068EFF3108A53
:100CA00072B601680029FCD00794BFF35F8F2068FB
:100CB000457B002D64D0A4685849A14669180901F4
:100CC000894449460E684F68B61A9F41002F5EDD81
:100CD0004B460B981A685B6800F04EFB0023002619
:100CE000002799469846079C6368BFF35F8F5A4672
:100CF0001A608AF310884346002B08D10028C7D118
:100D00000DB03CBC90469946A246AB46F0BD0A9B4E
:100D1000494618022843C047089009916268EFF3DA
:100D2000108A72B61368002BFCD00794BFF35F8F54
:100D30000899099A002A44DB114303D0079B1B69D9
:100D4000002B59D1079B1B68DA7B002A06D0510083
:100D50008A1819688C466244033A5570DD73079B04
:100D6000013DDA68535D013353555B46079A1361C1
:100D70005368BFF35F8F5A461A608AF3108887E77B
:100D8000002300260027994698460020ABE7002F55
:100D900001D1002E9CD1002100F0B4FC4B461E680E
:100DA0005F689B68079A98464B46DB689946D3680C
:100DB0005B19013B1B780A931B020343136100205C
:100DC00091E72369002BBDD033003C005B1A9441AE
:100DD0001A002300A74219D901225242D3175946BB
:100DE00004910121039149460191414607980295DA
:100DF0000091FFF7B9FEB8E700F06EFA089A099B78
:100E000006000F0092197B419942E5D89F42E6D136
:100E10009642E4D9E0E7C04644130020FFFFFF0FED
:100E200010B5104C6368002B00D010BD23000E4A93
:100E30001021206800F084FB032000F041FA032019
:100E400000F008FB0320094900F050FAFFF74AFEC2
:100E5000074B9C46032360442375064B800060606B
:100E6000DC60E2E7540200202D0B0010710C001032
:100E70004000003444130020004870475402002012
:100E8000F0B557464546DE464E46E0B585B001937F
:100E9000002300279A46804610A909780092039102
:100EA00043465A68EFF3108972B61368002BFCD0E2
:100EB000BFF35F8F43461D68AC7B002C4FD06600AC
:100EC0002B683619033E9B195A78AA73002A00D161
:100ED000EA7342469F705F701F709268504B944651
:100EE0000099019AE3181B01634419605A600E9A35
:100EF0009A600F9ADA602B689B199F705F701F7061
:100F00006B7B9B46002B46D022001900A8686B68BB
:100F100098472A68002831D05B4658465B005B44FE
:100F20009619033BB070D118D35C002B00D07370BE
:100F30005B460C706B735C452ED04346DB681B1917
:100F4000013B187843465B68BFF35F8F1F6089F3EE
:100F500010885346002B2ED10002204307E05B6827
:100F6000BFF35F8F1C6089F310880120404205B0F9
:100F70003CBC90469946A246AB46F0BD5B465B0042
:100F80005B44033BD3189C709119925D002A00D0FA
:100F90005A705B460B706C734346187D009A019B38
:100FA00000F0EAF982460028C7D0434621001868BD
:100FB00000F046FCC1E7039B002B2FD00E9B0020C6
:100FC0000F999847030004000D000B4326D0002919
:100FD0000FDA0098019902000B00121BAB419942F5
:100FE00016D801D1904213D800920193039B9A46E0
:100FF00056E700F071F902000B00A4185D412000D3
:10100000290000900191AB4202D8EFD1A242EDD964
:1010100001235B42DC1700930194E7E70020A6E779
:10102000FFFFFF0F70B542680400EFF3108572B642
:101030001368002BFCD0BFF35F8F2068CAB2437BDC
:1010400093420AD0FF230B405E00F3180668B446B3
:101050006344033B9B78002B13D0E668FF23B44620
:101060000B406344013B090A1E78C9B28E420DD081
:1010700000206368BFF35F8F00221A6085F3108839
:1010800070BD22698A42F3D12361F1E7110000F0BB
:10109000D7FBEEE7F0B557464E46DE464546E0B58F
:1010A000554C83B081460F00019000916368EFF3C7
:1010B000108A72B61A68002AFCD0BFF35F8F2668C8
:1010C000B57B002D42D06B005B19033B984633681B
:1010D00043441A005B78B373002B00D1F3730023F1
:1010E000937053701370A168444A8C464946AA18FD
:1010F00012016244116042495760D36091603268C6
:101100004244937053701370737B9B46002B45D001
:101110002A001900B06873689847326800282ED0FA
:101120005B465B005B44033BD1188C464146584606
:1011300051188870D35C002B00D04B7063461D7033
:101140005B4673735D452AD0002633E06368BFF3C6
:101150005F8F1D608AF310882A4B009A596A002617
:101160008A4204D89B6A019A013693423FD33000E9
:1011700003B03CBC90469946A246AB46F0BD434600
:10118000D1185B4640465B005B44033BD3189D701F
:10119000125C002A00D05A705B460B7075734A4689
:1011A0003B00207D00F0E8F8061ECDD02900206825
:1011B00000F046FBE3685B19013B19786368BFF3F5
:1011C0005F8F00221A608AF31088002EC4D120BFDE
:1011D000090229432000FFF725FF0A4B009A596AAC
:1011E0008A42C4D89B6A019A01269342BFD2791AD7
:1011F0004F1EB941CEB2BAE754020020FFFFFF0FE5
:10120000610B001000400540F0B5D6464F464646FB
:10121000C0B5EFF305833F22134018001038EFF3F9
:10122000108C72B6204D2A68002AFCD0BFF35F8F65
:101230000122110081401D4C884661631C49170042
:101240000E788A463100C1400F400A4215D0194934
:101250008200646A51588C4219D3174BD2584346C6
:101260009E4353461E70BFF35F8F00232B608CF3A9
:101270001088002A06D0904704E0BFF35F8F2F60EC
:101280008CF310881CBC90469946A246F0BD0B4AD0
:101290009B00904643441A681A60BFF35F8F002397
:1012A0002B608CF31088EDE7280100D0004005404A
:1012B000721300205C1300200C0C0020D03F05406E
:1012C00010B50100024A0348FFF780FB10BDC0467D
:1012D000586D00106F130020034B596A0A00986A7A
:1012E000596A8A42FAD170470040054070B504003F
:1012F0000D00EFF3108672B61A4A1368002BFCD06B
:10130000BFF35F8F002D1BD0200000F089FD164930
:1013100081420AD0200000F08BFD0121200000F066
:1013200065FD0123A340114A1360114BA400E55051
:10133000BFF35F8F00220B4B1A6086F3108870BDDD
:101340000B4BA200D5500122A2400A4920000B7885
:1013500093430B70044900F095FD0021200000F03C
:1013600045FDE5E7280100D009120010386005406E
:101370000C0C002072130020F0B5DE4657464E4696
:101380004546E0B52F4C83B0616A0D00A66A616ADC
:10139000A942FAD194461D008B420AD807D00120F9
:1013A00003B03CBC90469946A246AB46F0BDB24263
:1013B000F5D9EFF3108972B6234C21680029FCD0CF
:1013C000BFF35F8F01248440E6B2B0461D491F4E33
:1013D0004C63B346367801964646019F3E435F46CE
:1013E0003E70061DB6007250194A800083500B6A89
:1013F000002023420CD00A004B6A1900906A536AFD
:101400008B42FAD19D4202D80AD1844508D90020E6
:10141000BFF35F8F00220C4B1A6089F31088BFE77F
:10142000084B019F1C625C6343469F435B4601205F
:101430001F70BFF35F8F0022034B1A6089F310887F
:10144000AEE7C04600400540280100D072130020DE
:101450005C13002010B5EFF3108472B60A490B68D4
:10146000002BFCD0BFF35F8F01238340074A08485D
:10147000136202789A430270BFF35F8F00230B6000
:1014800084F3108810BDC046280100D000400540FC
:1014900072130020024B9C46614489000160704732
:1014A0004000003410B50400FFF71CFB01002000D1
:1014B000FFF7F0FFFF232371BFF35F8F10BDC0461E
:1014C00010B504000120FFF719FB01002000FFF711
:1014D000E1FFBFF35F8F10BD70B505000E00140073
:1014E000002924D0002A24D080686B689847296896
:1014F00000280ED063001B197200033B9219CB1811
:10150000033A9E7088188A5C002A14D10470300057
:101510000EE073009B196200033B1219CB18033ACB
:101520009C7088188A5C002A00D05A7006702000CF
:1015300070BD0800FCE75A7004703000F8E7C04640
:1015400030B583600023CCB243730133047342602F
:101550008373C4730D000068012C06D9421C01334B
:10156000DBB2137003329C42F9D1FF2129404B00BA
:101570005918002340180338437030BDF8B5CE46E3
:10158000474606000C0080B5002907D04D000368CF
:101590006D18033D5A195778002F04D120000CBC58
:1015A00090469946F8BD7900C919033988464344E5
:1015B0005978894600215970517073683A002100AA
:1015C000806898473368002814D042469A1894706F
:1015D00059195B5D002B00D053700F7027004946EE
:1015E0003000FFF7CBFF390002003000FFF774FF37
:1015F0000400D3E7424641465D19AF709A185B5C20
:10160000002B00D06B701470E9E7C046F0B5574668
:101610004546DE464E46E0B50D006B0001685B199D
:10162000DF1E0400C85D83B00192CA1900284CD0A7
:1016300043001B18033BCB185E78B446002E16D12E
:10164000019E002E3ED0E67B002E04D073009B1935
:10165000CB18033B5D70E57300282FD10023537036
:1016600003B03CBC90469946A246AB46F0BD720022
:101670006244033A89184A78904600224A7091469B
:101680005A70010032002000FFF726FF43468246D1
:10169000002B07D05B0021684344033BCB185A78EA
:1016A000002A16D1424651462000FFF715FF216857
:1016B000019BCA19002BC6D10028CFD043001B18AC
:1016C000033BCB1800219970C8E7019B002BBAD1CE
:1016D000C4E7500080180338091848788346484604
:1016E0004870587041462000FFF7F6FE5946804684
:1016F0002000FFF743FF414602002000FFF7ECFE09
:101700008046CFE7F0B54E464546DE465746E0B543
:10171000467B040075000068AD19033D83B001915C
:10172000415D421900294ED04B005B18033BC318A2
:101730005F78BC46002F18D1019D002D40D0E57B7D
:10174000002D04D06B005B19C318033B5E70E67379
:10175000002931D1002330005370617303B03CBCC9
:1017600090469946A246AB46F0BD7A006244033AE1
:101770008018427893460022427091465A702000A9
:101780003A00FFF7A9FE5B468046002B07D05B00BE
:1017900021685B44033BCB185A78002A17D15A467C
:1017A00041462000FFF798FE019B01002068421986
:1017B000002BC4D10029CDD04B005B18033BC318CC
:1017C00000209870C6E7019B002BB8D1C2E75000FB
:1017D000801803380918487882464846487058707F
:1017E00059462000FFF778FE53468346002B07D06A
:1017F0005B0021685344033BCB185A78002A06D17A
:10180000594652462000FFF767FE8346C7E750005F
:1018100080180338091848464F7848705870514668
:101820002000FFF759FE390081462000FFF7A6FE91
:10183000494602002000FFF74FFE8246E0E7C0461F
:1018400070B5040000292CD0437B8B422ED0056854
:1018500048004018033828188278002A21D0530005
:101860009B18033BEA5CEE188A4202D11BE0002A77
:1018700008D053009B18033BEB185A788A42F6D1E4
:1018800042785A7000230122837043702000FFF7D2
:10189000BDFE617B02002000FFF71EFE6073012089
:1018A00000E0002070BD43783370EBE7012219009F
:1018B000FFF7ACFE60730120F4E7C0462B4B2C4AC7
:1018C00070B51A602B4A2C4B2C491A6010008B689B
:1018D0009843FBD12A4C2B4B9C4209D2013B1D1B48
:1018E000AD080135AD002D1908CC9847AC42FBD1AD
:1018F00000F07AF8244A204B1A60204A9368DB01F2
:101900008033FBD14022214B214C9A675A671A67DA
:10191000DA66204B9C420BD2013B1D1BED080135C2
:10192000ED002D1920000834FFF7BCFDAC42F9D1C1
:10193000194C1A4DA168C022280002F05DFEA56076
:10194000FFF7C2F800F0D6FBFFF76AFA144C154B0C
:101950009C4209D2013B1D1BAD080135AD002D197C
:1019600008CC9847A542FBD170BDC04600E00040BE
:10197000BFCDFFFFFE7F3C0000F0004000C00040F4
:101980006007002070070020FFFFFF0100F001400A
:10199000580700206007002000ED00E00000002054
:1019A000700700207407002000BEFDE70FB400B5EB
:1019B000084883B002F032FF049B002B07D005A932
:1019C0001800019101F0D4FE034802F027FF00BE89
:1019D000FDE7C0467C6D0010386D001010B5014861
:1019E000FFF7E4FF8C6D001030B50C2083B000F0E1
:1019F0006BF9FFF793F800280ED09A4B9A4A1A60B9
:101A00005A609A60DA601A615A619A61DA611A6200
:101A1000964A5A6203B030BD954CA06700F0A8F911
:101A20000122944B1A60636C012BFCD10322924B70
:101A30001A608F4A936B012BFCD1C0228F4B92010D
:101A40001A608F4B8F491A6010008B689843031EF1
:101A5000FAD1022401218C4A8C480633009400F00C
:101A60009BF905238A4A01218A48009400F094F9E1
:101A7000894B5A68FF2A02D8802252005A6080227D
:101A8000784C7D4B21691201834D1A60002905D0E5
:101A9000606901F0E7FE01300138FDD1E0217E4BA5
:101AA00002201A681140802252012A4311601968ED
:101AB000484003210140116004219A681142FCD082
:101AC0008022802192012A43090111608022520064
:101AD0005A60724B2361724B5968FF2900D85A60D3
:101AE00003226F48634B01211A6002009368194278
:101AF000FCD0E02513681D4080235B0103431D607B
:101B000012684A400321114019600221644A936817
:101B10001942FCD0802380219B01034309011960F5
:101B20008021604B4900516063615F4B5A68FF2A16
:101B300000D8596080225D4BE16912015A4D1A604C
:101B4000002905D0606901F08DFE01300138FDD11A
:101B5000E02255490B681A4080235B012B431A6031
:101B6000802380229B012B4312011A6080223E4B6E
:101B700052004A60E3614E4B5968FF2900D85A6011
:101B800080224C4B216A1201494D1A60002905D070
:101B9000606901F067FE01300138FDD1E02244495F
:101BA0000B681A4080235B012B431A60802380223C
:101BB0009B012B4312011A60802380225B004B6043
:101BC000294BD20223623C4B5968914200D25A60A1
:101BD00080223A4B616A1201374D1A60002905D004
:101BE000606901F03FFE01300138FDD1E022324949
:101BF0000B681A4080235B012B431A6080238022EC
:101C00009B012B4312011A608023DB024B60174BB0
:101C100063622B4B5A68FF2A02D8802252005A6016
:101C20008022284BA1691201254D1A60002905D098
:101C3000606901F017FE01300138FDD1E022204932
:101C40000B681A4080235B012B431A60802380229B
:101C50009B012B4312011A6080235B004B60114BE8
:101C6000A361D7E6200C0020006CDC021BB700004B
:101C7000008000403CB0004030B0004000E0004038
:101C800000F0004000C00040002F68590080024072
:101C900000389C1C00C0024030800040001BB70090
:101CA0003C800040405973075480004054B00040CD
:101CB0006080004060B000406C8000406CB000402C
:101CC0004880004048B000408023024A9B00034304
:101CD000D36270470080054010B5140080221A4B73
:101CE000D2051A6000282CD00123184A1843184B3B
:101CF000DA61184A42401A62596298628022124B95
:101D0000D2051A601449154A1160E022D2041A6003
:101D1000002C12D080236201121B920012191201B2
:101D20005B049A4200D30E4A0E4B1A60084B5A606D
:101D300080220D4BD2051A6010BD0C4A094B1A6067
:101D4000F4E7034BD861D9E700B00540D3C007B032
:101D5000008005402D3FF84FFCFF010008200140A6
:101D6000FFFFFF003C13002000A00540A0860100FB
:101D7000AA23064A1B0113602F230549D360054B94
:101D800019605368002BFCDA7047C04600400240DF
:101D900000B0FA0000600240F8B51E0001235B426B
:101DA000436000230400836001600C20170001F0F1
:101DB00059FD4101091A8D01691AC90009188901E3
:101DC000380001F04FFDC021231D89011943212353
:101DD000A0600B602268002AFCDA069B36041B0315
:101DE0001E430823E6600B60F8BDC0460123834014
:101DF000002904D0034A1360034A13607047034A62
:101E00001360FBE780E200E000E100E080E100E039
:101E100001238340014A13607047C04600E200E09E
:101E2000024B10309B688000C058704700ED00E006
:101E300070B50D00EFF3108672B60F4A1368002BD1
:101E4000FCD0BFF35F8F0D4B10309B6884001B5993
:101E50000B4A934203D09D4201D0FFF7BFFD074BD1
:101E60009B681D51BFF35F8FBFF35F8F0022024B52
:101E70001A6086F3108870BD240100D000ED00E0E8
:101E8000CD010010F0B5DE4657464E464546E0B55A
:101E90000C0083B0EFF3108A72B65B4A1368002B14
:101EA000FCD0BFF35F8F1022914681444A46574BC6
:101EB00096009B689D59564B98469D4205D0A54279
:101EC00016D0544FEB1B2F2B14D9504B9B689D51B0
:101ED000BFF35F8FBFF35F8F00224B4B1A608AF313
:101EE000108803B03CBC90469946A246AB46F0BD74
:101EF0001D00EAE7012383409B465A46464B1B6878
:101F00001A4000925A46454B1A60BFF35F8FFEF7A6
:101F1000AAF90190002803D0814501D0FFF75EFDAA
:101F200001232A009A431300DB1B5B4142495943BA
:101F3000090D93689C4208D15BE043001B189B008D
:101F4000FB189868A04211D01A00062010560028ED
:101F5000F3DA009B002B05D05A46314B1A602E4B0A
:101F60001A60B2E75A462D4B1A60AEE706201856A3
:101F7000002822DB4200111889007C188846A168DD
:101F80009960E179D971062161569971A1797F290A
:101F90001FD8A488F91A6405241544440919E024BB
:101FA0000905490D24022143998012181D4B920006
:101FB000BF181A781870BA71CBE7019800280BD1B6
:101FC000FF30907118489080164A107811709871FF
:101FD000BFE7BD210902E7E7144A1549D21A083ABA
:101FE0005002400D01439980124952080A43DA8099
:101FF000AFE70620105613000028BBDA019A002A2A
:10200000EAD14546E0E7C046240100D000ED00E0FB
:10201000CD0100107C02002000E100E080E100E042
:1020200080E200E07013002000BDFFFFB602002038
:1020300000F0FFFF00F8FFFFAAAA0000F8B5012595
:1020400004000543FEF70FF90200EFF3108672B6A5
:1020500021490B68002BFCD0BFF35F8F1F49200084
:10206000401A4041224B43431B0D1D489200876894
:102070005BB2BF58AF421CD006228A569A421CD08F
:1020800012228A569A4222D01E228A569A4220D082
:102090002A228A5603209A4210D0124A11781370CD
:1020A000A171BFF35F8F00220B4B1A6086F310887B
:1020B000F8BD81680C488850EFE7002042001218F4
:1020C00092008918FF228A71084A8A80E5E7012078
:1020D000F4E70220F2E7C046240100D07C02002091
:1020E00000ED00E070130020CD01001000BDFFFFE7
:1020F000AAAA0000F0B500220324FF2780262000B2
:102100003D00094B11009C461040C0008540A14392
:1021100061440B680132AB43350085402B430B60B3
:10212000202AECD1F0BDC04600E400E07047C04674
:10213000F8B557464E46DE464546E0B51F000A9BB9
:1021400005009B460D9B0E00914692469B0718D1B9
:102150000B9B0C9A934214D213000B9AB8469B1A0D
:102160004B444C460F0006001D002200434601343C
:1021700039002020B047AC42F7D1AA4635003E00D6
:1021800047460B9B002B38D09A441C00D046534640
:102190001A1B5B46013C185D31003B00A847002C30
:1021A000F5D10D9B9B0721D543464A469C1A0C9BB3
:1021B000A3421BD93A009A464F469146E2194B4634
:1021C000310020200134A8475445F7D343460C99E9
:1021D000DB1B0133B9460022994203D343464A1E12
:1021E0004A44D21A434690460133984440463CBC88
:1021F00090469946A246AB46F8BDD046D1E7C046C8
:10220000F0B54F464646D646C0B584B098460EABAC
:102210001B78129F994694460D9C109B119EBA07FD
:1022200025D4002E69D19C4200D3C2E001223A405D
:1022300092461F2C00D9BBE00C9A551E302201E0BB
:10224000202C03D001342A55A342F9D85246002A43
:102250000DD0B4420BD21F2C62D80C9A551E3022DE
:1022600001E0202C5CD001342A55B442F9D1FA06A1
:1022700035D57A055DD4002C57D10F9B102B00D19A
:102280007CE00F9B022B00D18DE030230C9A0124BF
:1022900013704B46002B27D02D230C9A1355013475
:1022A0000C9B624600930397434602960194FFF706
:1022B0003FFF04B01CBC90469946A246F0BDBB0649
:1022C00063D4202CECD00C9B1A19013478231370A2
:1022D000202CE5D030220C9B1B191A700134202CC5
:1022E000DED04B46002BD7D17B0735D43B07D7D563
:1022F00020230C9A13550134D2E7012215003D40EA
:10230000AA463A4220D04A46002A2AD10C323A4202
:1023100027D19C429DD21F2C00D88DE7202E19D9A1
:102320002024FA06BCD57A0503D4A3421BD0A642CA
:1023300019D00F9B102BC2D0022BC9D1202CAFD0AB
:102340000C9B1B19013440E09C4200D38FE71F2CEB
:1023500000D871E720248AE72B230C9A1355013407
:102360009EE7013ED5E7631E012C00D185E70F9A59
:10237000102A20D0022A25D01C00ABE7BB060DD4C2
:1023800078230C9A01241370A4E7202C00D187E74E
:1023900058220C9B1B191A70013499E758230C9A88
:1023A0000124137096E70C9A60330124137091E7AF
:1023B000202400265BE7023CBA06E9D40C9A1219E5
:1023C0001C0083E70C9A9246534462221A707FE7FE
:1023D00010B5002800D110BD02F012FAFBE7C0468C
:1023E0000B0010B5002802D049681B68984710BD43
:1023F000F0B5DE46574645464E46E0B59BB09B4697
:10240000249B0A909846259B0B910C92404642468D
:1024100019009A4601F0E3FC002800D0E8E0012210
:10242000404651467F4B524201F0D4FC002800D078
:10243000DEE00122404651467B4B524201F0B4FCA3
:10244000002800D0D4E0002200234046514601F08D
:10245000ABFC002800D0CAE15346C1460993802353
:10246000289ADB001A400E92289A1A4201D10623BC
:1024700026934C46099B234300D0D9E0289B002695
:1024800000271B0500D4AEE100230D93269B190005
:102490000D9B994200DCB0E1C81A431E26938023AD
:1024A000289ADB001A430023002528920D93279BCE
:1024B0000024AB4200D95C1B0223289A1A400E92DA
:1024C000289A134203D06B426B415B421C400D9B28
:1024D000002B07D04846099932003B0001F019FC57
:1024E00081460991002200234046514601F05CFCE0
:1024F000002805D08020000684460999614409918E
:10250000289A4A4B0A9E13404A460493269B0B99ED
:102510000293099B03940092019330005B460C9A4E
:10252000884600F0A1F90400002D72D0289B2200FB
:1025300098061F23C017984341465B466530B04755
:102540000D9B671CDA179C18DB0F98466B1E99468B
:102550000025544001E0202D13D00AAA94461F23E1
:10256000200063440A2101355E1901F07BF9303106
:10257000317020000A2101F075F926000400092EAF
:10258000E9D8052306934B460593002304930A33A9
:10259000039343463A000A9E0B9F029312AB0093AB
:1025A00039005B4630000195FFF72AFE0E9B0400C0
:1025B000002B2ED00C9B279AC51AAA4229D93C0081
:1025C000814698461700434621005A1920205B4651
:1025D0000135B047AF42F6D84C460C992798631A9C
:1025E00001330022984200D30AE10134141910E0AB
:1025F000289B42460493279B0B990393269B0A989A
:1026000002935346009201935B460C9A00F02CF91A
:10261000040020001BB03CBC90469946A246AB4645
:10262000F0BDC046FFFFEF7FFFFFEFFFFFF7FFFFAB
:10263000764B099D9C466800400D604401F0E2FB2A
:10264000734A744B01F06EFB734A744B01F058FBF4
:102650002B03734A1B0B1A4306000F00714B11002A
:1026600048460022099501F042FB6F4A6F4B01F08A
:1026700059FB02000B003000390001F041FB01F072
:10268000D9FB0D9001F0BEFB694A6A4B04000D00B6
:1026900001F048FB0022684B01F032FB01F0CAFB5D
:1026A000664A0600664B2000290001F03BFB04004F
:1026B00030000D000F9601F0A5FB624A624B01F05D
:1026C00031FB02000B002000290001F010FB02008A
:1026D0000B0006000F0001F025FB320004000D0086
:1026E0003B003000390001F00BFB002210901191EB
:1026F000564B2000290001F00CFB0022544B01F046
:10270000FFFA02000B002000290001F002FB00226A
:10271000504B01F0F5FA02000B002000290001F0F7
:10272000F8FA0D00802132003B000400C9050020AA
:1027300001F0DDFA02000B002000290001F0E0FAB0
:1027400002000B001098119901F0E3FA0022344BBB
:1027500001F0D6FA404A0F9B9446634400221B05C1
:1027600001F0E0FA06000F0002000B00484609994C
:1027700001F01AFB00280AD00D9B3000013B390004
:102780000D930022324B01F0C4FA06000F00C6255B
:102790000D99330063318D42AD4128996D42043566
:1027A000090500D483E63B4300D16FE6099C484607
:1027B00021002A4A2A4B01F005FB002808D00022FC
:1027C00048462100274B01F0EFFA002800D05DE6D3
:1027D000269B002B00D16AE60E9B5A1E9341269A37
:1027E000D31A269363E6002304250D935FE6802326
:1027F0001B065344C146099331E6002326934EE657
:102800000A008446013A6244121BEEE601FCFFFF17
:10281000FB799F501344D33FB3C8608B288AC63FCF
:102820000000F03F0000F83F61436F63A787D23F8D
:1028300071A379094F930A400000E03F1655B5BBDC
:10284000B16B0240EF39FAFE422EE63F00002C4009
:102850000000244000001840FF0300002D431CEB43
:10286000E2361A3F80842E41F0B54E46DE4657468A
:102870004546E0B597B09946209E219F229B83460E
:10288000984607910C923B0032003000390001F06D
:10289000A6FA002800D0C1E1012230003900CA4B5D
:1028A000524201F081FA002800D0E0E0012230001D
:1028B0003900C64B524201F08DFA002800D0B6E034
:1028C000002230003900C24B01F084FA002800D009
:1028D00098E0002230003900BE4B01F065FA002874
:1028E00000D08FE0002200233000390001F05CFAB4
:1028F000002800D0B0E000230D93249B5B0501D499
:102900000623984608AB9C461722002430234146F4
:10291000624404E0013413550139202C01D0092907
:10292000F8D888463000390001F084FA4346DA00CE
:10293000A94B05009B181A685B680892099301F07F
:1029400061FA02000B003000390001F0D0F9089A5A
:10295000099B01F0E7F90A900B9101F08FFA82468A
:1029600001F04CFA02000B000A980B9901F0BFF934
:1029700000229A4B0A900B9101F02CFA002800D10A
:10298000C0E001239C46E244504601F037FA0200C1
:102990000B000898099901F00DFA002802D00023D5
:1029A0009A4601354346002B69D008AB17269C4652
:1029B00008956644554614E001235B4243440A21CE
:1029C00028009A4600F04EFF013430313719397033
:1029D00028000A2100F046FF092D00D8D5E0D04696
:1029E0000500202CE8D10323249A1340012B00D1A9
:1029F00000E10EAB9846249B01940393239B029322
:102A000043461EE0249B58460493239B009601975F
:102A1000039343460C9A029307994B46FFF7E8FC51
:102A200017B03CBC90469946A246AB46F0BD249BED
:102A30005B070ED403226A4B2499019203912399D8
:102A40000291009358464B460C9A0799FFF770FB8A
:102A5000E6E70422634BEFE73B0032000020002151
:102A600001F045F9012306000F000D9345E7249B73
:102A70000393239B0293042301935B4BE1E728001C
:102A800001F0C0F902000B003000390001F02FF90D
:102A9000524B002206000F0001F086F90EAB98465B
:102AA00000280AD10022300039004C4B01F092F985
:102AB000002802D1EB0700D50135202C32D008AA1E
:102AC00094461723280063440A2101341E1900F09C
:102AD0009DFE3031280031700A2100F097FE051E5E
:102AE000EBD10323249A1340012B00D191E01F2C3A
:102AF00000D980E70D9B002B3BD02D234246135578
:102B0000013478E700220A980B99344B01F04CF914
:102B1000002800D046E75346002B67D101239C468E
:102B2000E2443FE70323249A1340012B00D062E7DD
:102B3000239B002B00D15EE70D9B002B03D1249A31
:102B40000C33134202D0239B013B2393239B9C42D3
:102B5000CDD208AB9C461722302362441F2C06D8E6
:102B60002399013413558C42C1D0202CF8D1202454
:102B700041E7249B5B0721D4249B1B0700D43AE741
:102B8000202342461355013435E75746089D202C33
:102B900037D0220030214046002F08D00132B154F6
:102BA000202A43D0D3431B191B18002BF6D10EABA0
:102BB00098462E234146541C8B547EE72B234246D5
:102BC0001355013417E7C046FFFFEFFFFFFFEF7F0C
:102BD00065CDCD4165CDCDC1906F00100000E03FC7
:102BE000986D00109C6D0010A86D0010DB0700D4DC
:102BF000D8E693E7239B002B00D1FAE60EAB98466C
:102C00009AE70323249A1340012B00D0F1E60EAB80
:102C10009846239B002B00D169E78DE7249B039303
:102C2000239B029303230193064B0AE70323249A71
:102C300020241340012B00D0DBE6239B2024002B13
:102C4000DCD1D6E6A46D0010F0B5DE464E46574600
:102C50004546E0B59FB01C00289B93460993CF4A98
:102C6000CF4B894608901A60002900D116E2002354
:102C700020789A46002800D118E226001D004C4614
:102C80000AE02A006F1C5B46089D2100A8473D0012
:102C90000136307800287AD02528F2D110239A46C0
:102CA000083B9946043B9846023B00219C46721C17
:102CB000107816000300203BDBB2102B03D8B94F6D
:102CC0009B00FB589F460300303B092B3CD9002357
:102CD0000A932A2800D171E0002398462E2847D075
:102CE0000300683BDBB2122B1FD8AF4A9B00D358BE
:102CF0009F46012301321943DAE763460132194343
:102D0000D6E7434601321943D2E75346013219430D
:102D1000CEE74B4601321943CAE770786C2800D1E0
:102D2000BFE280235B00194301360300253BDBB281
:102D3000532BA6D89D4A9B00D3589F4680235B0007
:102D4000707819430136F0E700270300B800C01976
:102D500001364000C018337830381A00303A070086
:102D6000092AF3D90A901800002398462E28B7D1D3
:102D700080237078DB0019430300303B721C092B61
:102D800000D895E12A2800D1A6E11600A8E7A146BF
:102D9000AA462C00D34503D801235B425B449A46E4
:102DA0005B46524649460020089DA84720001FB0B8
:102DB0003CBC90469946A246AB46F0BD099B40CB31
:102DC0000A96002E03DB50780993561C84E72838B6
:102DD000014370420A9009935078561C7CE778288A
:102DE00000D1D4E1582800D168E26F2800D152E325
:102DF000622800D1D8E110230A009A430B92692877
:102E000001D000F0A2FC0A230C934B0500D4D5E1BD
:102E100001230B9A9A430B92692800D1CEE16428D2
:102E200000D1CBE10B9A802311009B0019408A4608
:102E30001A4200D032E3802311005B00194089461A
:102E40001A4201D000F002FC13005B0600D510E32B
:102E50000B9B1B0601D400F06EFC099B04CB1204F3
:102E6000120C924609935346002B00D064E30B9A50
:102E70001033110099430B91520500D45CE30023F9
:102E800099460B9B06930A9B0593434604930C9B20
:102E900003930023DEE27078682800D107E28023E4
:102EA0000136194341E780239B00707819430136AE
:102EB0003BE7462800D174E10722099B04910733C0
:102EC00093430A9A19000392424602920CC9089849
:102ED0000092019309912A005B462100FFF7C4FC90
:102EE00001360500D5E6099B1A0008CA9146002B59
:102EF00000D105E1212211438A460EA884461F21F4
:102F00006144099500220F27A4460D0002E0202A03
:102F10000CD00B003C001C4020003730092C00D89E
:102F200007380132A85419090F2BF0D86446099DBF
:102F3000F0E08B0700D4D1E1099B2A0099466B1C75
:102F400098464B4601CB21009946089F5B46C0B28C
:102F5000B8470A9B9C466544012B00D890E2B246D4
:102F60005E464746A846089D3A00330001372100D7
:102F70002020A8474745F7D1B3464B4656463D006B
:102F80000993013685E62A006F1C5B46089D2100E7
:102F90002520A84701363D007BE6C046492C00109D
:102FA00038130020B06D0010F46D0010406E00105A
:102FB000099B04CB994643460992002B00D097E029
:102FC00013789C46002B00D1B3E302235B425A1CCA
:102FD000099B924618000A9F0B92504402E08342DC
:102FE00000D169E15A780133002AF8D1099A0A9789
:102FF0009B1A0B9380230A00DB001A400C921942A3
:1030000004D00B9B434501D943460B9302231A007E
:103010000A400D920B4200D184E16046002823D083
:103020000C9B002B00D124E1A844C246099B5746C3
:103030005B1B9846089BB2462A0026005C469B46CE
:1030400009E023003100551CD8474346585D00284D
:1030500000D13FE12A009742F3D1A3463D0034005E
:1030600056460D9B002B69D00B9B0A99A8469942A6
:1030700064D98C466544ED1A089B47469A46B0468B
:1030800026005C463A002300013731002020D0475B
:10309000AF42F7D1A346340046464FE0D24B2078EA
:1030A000089300239A46002800D0E6E5002471E644
:1030B000434606000A9F9800C0180132400080195C
:1030C0001678030030003038303B0928F3D930003F
:1030D000984616000A9703E6099B023604CB9046F1
:1030E000D2434046D2171040804609933078F7E526
:1030F00013789C46002B00D11AE34346013B66E758
:1031000010220800904311321043824600224905E4
:1031100000D4F2E6534606930823059343460493EE
:10312000102303930023029316AB019200932A000D
:103130005B4621000898FFF763F805004B4601360F
:103140000993A6E5202302009A43472A04D180234D
:103150001B01194302239843452801D12023194319
:103160000722099B0491073393430A9A190003929B
:10317000424602920CC908980092019309912A00D4
:103180005B462100FFF734F90136050081E5102385
:103190000C930C230A009A430B924B0500D43BE698
:1031A00036E62023194387E602230C930B910B99F3
:1031B0006428EED10B9B5B0500D529E60B9A802392
:1031C00011009B0019408A461A4200D0CEE08023AD
:1031D00011005B00194089461A4200D0DBE1130060
:1031E0005B0600D51DE10B9B09991B0600D499E2F3
:1031F00008C91BB2D8171A18424092B209919246D8
:10320000DA0F1292002B09D1802310220B99DB00D8
:103210000B4091430B91002B00D012E10B9A6123DC
:10322000920600D541230EA91F228C46DBB26244D0
:103230000A3B57461395A2464D460C9CB1460D934A
:1032400016000AE03033DBB201357355A74200D2D5
:103250001CE1202D00D119E107002100380000F009
:1032600001FBCBB20929EDD90D9A94466344DBB238
:10327000EAE7099B5F465B1B98460A9BB3469A4662
:103280002600089C2A003B003100A0474346013538
:10329000585D0028F6D1534634000A935E46BB467B
:1032A000DFE6C0239B00B078194302363DE5C0231A
:1032B000B0781943023638E50A979BE60C230A00DA
:1032C0009A4314331A4310230B920C934B0500D4EA
:1032D000A8E59DE5A34634005646C2E60A9A012AAF
:1032E00000D82EE26B1E9F18089BB0469946260018
:1032F0005C462A002300013531002020C847BD422A
:10330000F7D1A34634004646099B3A0001CB210081
:1033100098467D1C5B46089FC0B2B84743460136BD
:103320000993B6E40B9A0A98531C904200D80AE21B
:1033300043199B1A1F00089BB24626005C469B4619
:103340002A002300013531002020D847BD42F7D1A3
:103350000A9BA34601330B93099B34001B78564606
:103360009C466046002800D05AE6E7E60722099B03
:1033700007339343013294469C4462465F68099246
:103380001A68FB171093119310981199030053407A
:103390000E930B007B400F9394460E9A0F9B121ACC
:1033A0008B410E920F93FB0F6246129300233A4318
:1033B0009A463DD00B9A6123920600D54123002204
:1033C000DBB20EA90A3B8C4691460D9343461F3251
:1033D0006244139515964D460E9E0F9FA14690464A
:1033E0000C9C14930FE0C0462D2100103032D2B255
:1033F000434601355A55BA4500D17CE1202D00D114
:103400007CE106000F00220000233000390000F0AC
:103410006FFAD2B2092AE9D90D9B9C466244D2B216
:10342000E6E7FF23099904C913401A000991E6E66B
:103430000B9A1033110099430B915205BAD5002312
:1034400099460B9B06930A9B0593434604930C9B5A
:103450000393129B02934B46019316AB2A000093F1
:1034600021005B460898FEF7CBFE01360500FFF70A
:1034700010FCFF22099B02CB11408A460993F2E41B
:103480004B46454609930136FFF703FC4E4654462A
:10349000A946139DD5E708230C9387E60722099BCD
:1034A00007339343013294469C44624609921A685A
:1034B0005B6810009A4613005246134307D10B9ADB
:1034C0001033110099430B91520500D5D7E40B9AA4
:1034D0006123920600D541230022DBB20EA90A3BEC
:1034E0008C4691460D9343461F32624457461295CF
:1034F000A2464D460400B14690460C9E13930DE043
:103500003032D2B2434601355A550023BB4200D176
:10351000FDE0202D00D1FDE004000F00320000236B
:103520002000390000F0E4F9D2B2092AE8D90D9B55
:103530009C466244D2B2E5E70B9A6123920600D51D
:103540004123DBB20EA90A3B1F228C460D932300B8
:1035500062445446129517004D469A46B1460C9E59
:1035600008E03033DBB201357B55B4420ED3202D59
:103570000CD004003100200000F074F9CBB209290E
:10358000EFD90D9A94466344DBB2ECE74E465446BD
:10359000A946129D75E4099B1A0008CAD91713920F
:1035A0005A184A409146DA0F1292002B08D1802314
:1035B00010220B99DB000B4091430B91002B2BD178
:1035C0000B9A6123920600D541230EAA1F27944629
:1035D000DBB20A3B0D95674455460993A2464C461B
:1035E000B1460C9E08E03033DBB201357B55B44266
:1035F0000ED3202D0CD004003100200000F032F951
:10360000CBB20929EFD9099A94466344DBB2ECE7BF
:103610004E465446AA460D9D0B9B2A0006930A9BD4
:1036200021000593434604930C9B08980393129B37
:10363000013602935346019316AB00935B46FEF7A7
:10364000DFFD139B05000993FFF723FB099B04CBC8
:1036500091461293002A08D1802310220B99DB0097
:103660000B4091430B91002B2BD10B9A61239206B7
:1036700000D541230EAA1F279446DBB20A3B0D95C5
:10368000674455460993A2464C46B1460C9E08E055
:103690003033DBB201357B55B4420ED3202D0CD034
:1036A00004003100200000F0DDF8CBB20929EFD989
:1036B000099A94466344DBB2ECE74E465446AA4668
:1036C0000D9D0B9B2A0006930A9B21000593434600
:1036D00004930C9B08980393002302935346019391
:1036E00016AB00935B46FEF78BFD129B050009931A
:1036F0000136FFF7CEFAB44200D87FE6149B4C4661
:103700000E960F97A9469846159E139D99E6A642D8
:1037100000D8FEE6139B4E469846A9465446129D95
:10372000FFF7AFFB08C9D8171A184240099166E5A0
:1037300000230B935EE4099B04CB92460993FFF7A9
:1037400092FB2F00E0E50B930BE6063B0C932EE576
:1037500000B585B003910121029000930348130046
:103760004A4202A9FFF770FA05B000BDE12300103C
:1037700010B5094A0300146884B0002C08D0012257
:1037800000910648524203A9A047012004B010BD91
:1037900001F044F80020F9E738130020D12300108D
:1037A00001480421014B1847D0020020D1370010F6
:1037B000142310B50100188804331B88984710BDE6
:1037C000162310B50100188802331B88984710BDD6
:1037D000F0B5C64600B5002916D014230400012513
:1037E00098461827890046184346216818883B8860
:1037F000984701C4431E984140420540A642F3D178
:10380000280004BC9046F0BD0125F9E7144A936FE7
:103810009B0815D29066D166002905D0FFE7FFE727
:10382000FFE7516F106F704704B580210906C2177A
:103830005140002800D0C84303F042FA002104BDE3
:10384000936F5B08FDD3F0B5946ED56E576F166F0E
:10385000FFF7E0FF9466D56657671667F0BD000076
:10386000000000D0134A936F9B0813D21066516674
:10387000002905D0FFE7FFE7FFE7516F106F7047A2
:1038800004B5002801D00020C04303F019FA00213C
:1038900004BDC046936F5B08FDD3F0B5946ED56E42
:1038A000576F166FFFF7E2FF9466D5665767166786
:1038B000F0BD0000000000D094464E4A926F92087E
:1038C000624601D230E0C046F0B54A4EB56F6D0891
:1038D000FCD3346E756E776F366F00F025F8944622
:1038E000444A14665566576716676246F0BDC0467F
:1038F0009446404A926F9208624601D258E0C04610
:10390000F0B53C4EB56F6D08FCD3346E756E776FB5
:10391000366F00F04DF89446364A14665566576780
:1039200016676246F0BDC046002B24DB11D000298B
:103930003EDA00B5C943404200D1013100F038F809
:10394000C943404200D10131DB43524200D101332F
:1039500000BD002AEBD1002801D1002905D00020AC
:10396000C90FC90701D1C043410800B503F0A0F950
:103970000022002300BD00B500290ADBDB435242D0
:1039800000D1013300F014F8C943404200D10131A5
:1039900000BDC943404200D10131DB43524200D156
:1039A000013300F005F8DB43524200D1013300BD82
:1039B000002923D1002B18D1002A0CD0BC460D4F72
:1039C00038667A6600210023FFE7FFE7FFE77A6F9A
:1039D000386F67467047002801D00748010000B5DE
:1039E00003F066F90022002300BD02000B00002056
:1039F00000217047000000D0FFFFFFFF002B00D028
:103A0000BDE0130C26D1002AE7D080B4104F3966F0
:103A10007A66FFE7FFE730B4040C7B6F396F1B0455
:103A200023433B66FFE7FFE7FFE7C04684B27B6FB7
:103A30003D6F1B0423433B66FFE7FFE7C0460023BF
:103A40002C042D0C7A6F386F00196941B0BC704797
:103A5000000000D0F0B594460025140E01D11202EA
:103A60000835140F01D112010435940F01D19200D1
:103A70000235D40F01D152000135D40B0134254F4A
:103A80007C66254C3C660E0C93B2FFE7FFE7FFE730
:103A90003C6F6643360C7703BE467343DF0B5B0413
:103AA000C01AB941130C7343DB18C91ACE08664318
:103AB000360CB64493B273431F0F1B01C01AB941B1
:103AC000130C73431F0B1B05C01AB941860D8F02DF
:103AD0003E436643360C092D24DB520A7243801A9A
:103AE0007703460A6643360C16235B1BDE40DF4035
:103AF000BF1964466643821B7046043506330100D5
:103B0000D940A840C01900D30131A24206D20023F7
:103B1000F0BD0000000000D0FFFFFFFF121B0130CE
:103B2000F3D3F1E709277F1BFE406446A2B272433C
:103B3000801A00D20139220C7243130C1204821A2B
:103B400099410B007046043513370100F940A84035
:103B5000801900D30131002B02D1A2420AD2F0BD5C
:103B6000013000D30131121BFAD2013BF8D1A2423D
:103B700000D2F0BD013000D30131121BF7E7F0B5E0
:103B80001C0C00D080E00CB400251C0A04D11B02E0
:103B9000160E3343120208351C0B04D11B01160FFD
:103BA0003343120104359C0B04D19B00960F334321
:103BB00092000235DC0B02D192185B4101351C00EA
:103BC000971864410134464F7C66464C3C660E0CA7
:103BD000FFE7FFE7FFE7C0463C6F6643360C77031D
:103BE000BE4697B27743C01B00D20139C01B00D23A
:103BF00001399FB27743C91BC91B170C77437E0459
:103C0000FF0B801BB941CE086643360C0C2D33DB0D
:103C1000B644120B1F053A431B0B97B27743C01BE8
:103C200000D201399FB27743C91B170C77433E047A
:103C30003F0C801BB941860D8F023E436643292706
:103C40007F1BFE400C3D7746AF40BF1930BCA2B28F
:103C5000ABB272437343801A9941220C7243130C26
:103C60001204801A994102000B000137001BA94180
:103C7000F9D2781E0021F0BD0C277F1BFE4077464D
:103C80007F0BAF40FF19E0E700245D1C07D0144F05
:103C90007D663966FFE7FFE7FFE7FFE73C6F95B218
:103CA0009EB265436643401BB141150C1E0C654333
:103CB000664336042F0C3E432D04401BB14199420C
:103CC00004D202000B0020000021F0BD01D190427F
:103CD000F7D3801A994101349942F2D3F6E70000F4
:103CE000000000D0FFFFFFFF48404140484018B4AB
:103CF000114B5B68FC46019308BD04DF733F001065
:103D000018B40D4B1B68FC46019308BD00DF7D3FD6
:103D1000001018B4084BDB68FC46019308BD0CDFAB
:103D20003542001018B4044B9B68FC46019308BD53
:103D300008DFD94000100000E41F0020FFB550400C
:103D40004240504059404B40594000E0FFB5154FAC
:103D50004C00640D03D0BC4204D10C0314D80020E5
:103D6000090D09055C00640D03D0BC4204D11C039D
:103D70000AD800221B0D1B0501264B4009D44B40DD
:103D800003D58B4200D18242FFBD9942FCD19042C3
:103D9000FFBD0B43DB1803431343F5D0C943491858
:103DA000FFBD0000FF07000000B5FFF7CFFF804117
:103DB00000BDC04600B5FFF7C9FF01D9002000BD16
:103DC000012000BD00B5FFF7B9FF01D9002000BDFB
:103DD000012000BD00B5FFF7B1FF804100BD01200B
:103DE00040054A00121804D85A00121801D80020C1
:103DF0007047012070470020704700000021002814
:103E000005D17047C1174840401AFAD0C90713B509
:103E1000064B1B6898470CBC441CA2401005120BB3
:103E20000349091B09051943114310BDE421002072
:103E30001F04000010B54C00620D8023D218DB0077
:103E4000D21A5B057E2A10DD9E3A13DACC170903DD
:103E5000490819435242D140640001341532202AE6
:103E600005DAD0400843604310BD002010BD08466D
:103E7000604310BDC80FC018013810BD18B4044B02
:103E80005B6AFC46019308BD24DF6144001000001A
:103E9000E41F0020132370B51D78012D10D00BDD19
:103EA0002448FFF78DFC244C01008022200000F004
:103EB000A3FB022D01D070BD1F4C204AA264FAE77B
:103EC0002E001D4C1D4AA3085B421E401D422FD0F0
:103ED000330022602020B1006118801B0A604A6014
:103EE0008A60CA600A614A618A61CA610A624A627A
:103EF0008A62CA620A634A638A63CA630A644A645A
:103F00008A64CA640A654A658A65CA650A664A6639
:103F10008A66CA660A674A674008102803D18A671A
:103F2000CA67A264C7E71E339B00E250A264C2E7DF
:103F30000023CFE753440000E41F0020413F00105E
:103F400007B5604601880A0A0230DF2AFAD1C9B2F1
:103F5000820804D3028840880004104300E000680F
:103F6000014A5050039007BDE41F00200FB403BC6A
:103F70000CBCF0B50124E407634000E0F0B50C0D83
:103F8000CF0F661E3605891B640503D3C943404223
:103F900000D30131640D03D0661CF60A07D0E41B80
:103FA00000207F00791C89078912803C24031D0DA5
:103FB000DF0F6E1E36059B1B6D0503D3DB4352429C
:103FC00000D301336D0D03D06E1CF60A07D0ED1B34
:103FD00000227F007B1C9B079B12803D2D032F1B23
:103FE000661B58D4A446202E46DA20371400BC4065
:103FF0001D00BD40F24033412A4380185941CB0F88
:1040000005D0C943C0430022644250415141624639
:104010004D0D28D10D0D07D100281FD02419404186
:104020004941013A0D0DF9D0640006D3013000D3A7
:104030000131002C01D140084000013A0BD4941CFE
:10404000E40A04D112051144DB071944F0BDD90775
:10405000204B194300E0D9070020F0BD0029DDD135
:10406000002CDBD1F0BD0132C6074008CD07284344
:104070004908002EE1D0D9E73C2E29DA203E40370E
:104080001400BC4000D00124F24014431A00BB408D
:104090001C43D317ACE7AC46202F08DA20360400C7
:1040A000B4400D00B540F84039412843A5E73C2F06
:1040B0000CDA203F40360400B44000D00124F84020
:1040C00004430800B1400C43C117EAE7100019008F
:1040D000002494E70000F07FF0B50C0D661E360555
:1040E000891BE60A6405640D02D0651CED0A04D044
:1040F000002001210905803C2403A4461C0D671EF5
:104100003F05DB1BE70A6405640D02D0651CED0A60
:1041100004D0002201231B05803C24037740644423
:1041200097B484B296B27443070C7E43150C6F4368
:1041300080B26843361802D3012000043F183004CF
:10414000350C00197D41844688B29AB250430C0C5C
:1041500062431F0C7C438EB27E43921902D3012628
:104160003604A4191604170C3618674101BC81B235
:104170009AB25143040C62431B0C5C4380B2584317
:10418000121802D30120000424181004130C401844
:1041900063412D185E410020474106BC88B293B2AE
:1041A00058430C0C6343120C544389B251435B18BF
:1041B00002D301210904641819041A0C0918624178
:1041C0006D1856410020474118BCF902720D114389
:1041D000F0026A0D1043ED020A0D03D16D19404142
:1041E0004941013B124E9B1B7600B3420ED26D003B
:1041F00007D30130002671416646354301D140089E
:1042000040001B05C918E4072144F0BD0BDA013357
:1042100006D1013004D101314F0D01D04908F2E738
:10422000E1070020F0BD013631050020EBE700007A
:10423000FF030000F0B51C0D671E3F05DB1BE70AFE
:104240006405640D02D0661CF60A04D00022012326
:104250001B05803C2403D0252D060026F6432E6640
:104260001E096E66CE0FF619B44649004F0D02D0F6
:104270007E1CF60A03D000200021403F3F033E1B76
:10428000B600B444013F7F05C91B49082E6F0136B3
:1042900076089C02950D25437543ED137543AD13C8
:1042A00001356D10F603761B0CB4CC02450D2C4382
:1042B000A2B2B3B25A43270C7B43350C6F43A4B26E
:1042C0006C431B1902D3012424043F191C041D0C48
:1042D000A4187D4124196D41009A91B2ACB261439A
:1042E000170C7C432B0C5F4392B25A43A41802D3A1
:1042F00001221204BF182204230C52187B41019C96
:104300006C431B19520ED9010A434401A01A81B211
:10431000B2B2514303145A43360C734387B2774306
:10432000D617D21900277E4136049B191704160CA4
:104330007F185E417316ED18F30100268033754136
:10434000A90F06D16400690AE8055B0A184309D27F
:104350002FE00422944480337541A90AA8059B0AE2
:10436000184326D3404149412404009A019B0D0083
:104370005543641B4343E41A95B286B27543170C48
:104380007E43030C5F4392B25A43B61802D3012214
:104390001204BF183204330C52197B4152429C4123
:1043A000002C02D40022013051414008CA071043BA
:1043B000490802B06246D7079210084BD218084B42
:1043C0009A4203D212058918C919F0BD0020002AAB
:1043D00001DC3900F0BD01331905F5E7FD030000EC
:1043E000FE070000624618CA944600291ADAC0186F
:1043F00061415B463B415C46B4405246FA40224331
:1044000044464D4662416B41904699462B46B34027
:104410003D41FC401C4352465B46A241AB419246A3
:104420009B467047C01AA1414B463B414C46B440A5
:104430004246FA40224354465D4662416B419246F1
:104440009B462B46B3403D41FC401C4342464B46F5
:10445000A241AB4190469946704700200021704729
:10446000002200B5203200F004F8080000BD000072
:1044700000220B15F1D410B5944600F02FF8141457
:10448000013400DA0021CB17134C20476244343A40
:104490000CD40C2A07DA040091409040524220329A
:1044A000D440214310BDD843D94310BD203207D496
:1044B0000C469440524220321141D040204310BD5E
:1044C0000800C917203203D452422032104110BDD7
:1044D0001800190010BD00008D4400100A0DCC0F0B
:1044E000531E1B05C91A520503D3C943404200D3CA
:1044F0000131520D03D0531CDB0A07D0121B0020E0
:104500006400611C89078912803A1203014BD21A98
:1045100070470000FF03000051434343C9188C4615
:10452000110C83B24B4310B4040C614392B280B2BD
:10453000504362431C041B0C001910BC5941130466
:10454000120CC0185141614470470000132310B58C
:1045500012481C78FFF734F90100012C0AD003DD62
:1045600080220F4800F048F80E48FFF721F90E4B63
:10457000186010BD0A4C5422200000F03DF80B4B8F
:104580006365A365E36523666366A366E3662367E5
:104590006367A367E3672362E361E5E753460000CF
:1045A000E42000204C330000E4210020B14500103D
:1045B00007B5604601880A0A0230DF2AFAD1C9B27B
:1045C000820804D3028840880004104300E0006899
:1045D000014A5050039007BDE42000200148042107
:1045E000014B1847E0020020D1370010014B1B6837
:1045F00018470000E0020020014B5B6818470000EC
:10460000E0020020F8B54746CE460D0080B5160002
:104610000700002A20DD4B1E98461A4B002400207C
:104620009946002C2BD043461B5D0D3B5A4253410B
:10463000DBB22A5D0A2A13D00134A642F1DC86429D
:1046400003DD311A3B6828189847AD19013D2B78D6
:104650000D3B5A4253413B740CBC90469946F8BD01
:10466000002BE9D1A04203DA211A3B6828189847A9
:10467000484602213B68013498472000DDE73B7C37
:10468000D7E7C04644700010F8B54746CE460C0048
:10469000096880B50700802907D04B1C2360641887
:1046A00027710CBC90469946F8BD134B1D68002D30
:1046B0001BD0124B9846231D994602E0ED68002D51
:1046C00013D02E68002EF9D043461B68002B01D072
:1046D0009D42F3D16B7C2268002B09D0280049460B
:1046E000FFF790FFED68002DEBD101230021D5E706
:1046F00011004846B047E1E7B00C0020B40C0020A0
:10470000F0B557464546DE464E46D023E0B51B067B
:104710001C68374B83B007000D00180001A99046B4
:104720009A4602F0D5FA8146002807D1019B9C42A7
:1047300004D0504602F0DCFA012399466B1C03D1E9
:10474000380002F06FFA05002A4B1C68002C2FD0AD
:104750000A23294E9B4602E0E468002C28D02268F8
:10476000002AF9D03368002B01D0A342F4D1637C36
:10477000002B2AD02A0039002000FFF743FF4346D0
:10478000002BE9D06B465A461A71637C002B20D06F
:10479000237C002B26D00121236801A898476B4673
:1047A0001B790D3B5A4253412374E468002CD6D147
:1047B0004B46002B12D1681E8541E8B203B03CBCC9
:1047C00090469946A246AB46F0BD29003800904776
:1047D000D5E70121236801A89847BDE7504602F0BC
:1047E0005FFAE8E70221054823689847D7E7C04603
:1047F00058070020B00C0020B40C002044700010BA
:1048000010B582B06B4604000022D81D012104704F
:10481000FFF776FF200002B010BDC04670B504005F
:1048200002F000FA0122010005002000FFF768FFF6
:10483000084B1C68002C06D06368002B05D09847F5
:10484000E468002CF8D1280070BDE468002CF3D196
:10485000F9E7C046B00C00200D4A1368002B13D0B6
:10486000834202D109E0984208D01A00DB68002B8D
:10487000F9D1002900D0D06070471A000029FBD17F
:10488000DB68D360C160F7E70029F5D01060F3E77B
:10489000B00C0020F0B54646D6464F46D023C0B5F2
:1048A0001B061F68314BA2B004000D00180001A9BF
:1048B000984602F00DFA061E06D1019B9F4203D0D6
:1048C000404602F015FA01368422002101A8FFF7C4
:1048D0008DFE2B002200264801A9FEF739FF019B1F
:1048E0000700002B15D1234B1C68002C06D06368F1
:1048F000002B0CD09847E468002CF8D1002E2FD163
:10490000380022B01CBC90469946A246F0BDE4682F
:10491000EBE7184B1D689A46002D25D0164B99469B
:1049200002E0ED68002D13D02C68002CF9D04B4626
:104930001B68002B01D09D42F3D16B7C019A002BA8
:104940000AD0280002A9FFF75DFEED68002DEBD12B
:10495000534601951C68C8E7110002A8A047E0E78C
:10496000404602F09DF9CBE70195C7E758070020C4
:1049700089460010B00C0020B40C00200FB400B524
:1049800083B004A901C90191FFF784FF03B008BCFB
:1049900004B0184710B500F035F910BD7047C04697
:1049A0000022014B1A707047711300204B790020D0
:1049B000FF2B0BD18B79002B08D1CB79012B05D1A3
:1049C000082A03D98A78024B09301A707047C0460A
:1049D00071130020012070470120704770B5144A00
:1049E0004B79087912781B02034300209A4200D0C9
:1049F00070BD4B78012B08D0022BF9D10020642226
:104A00000C49FDF769F90120F2E7CA788C781202A7
:104A100005001443D20502D5620A93401D000648E2
:104A2000FEF7C6FE7F210300214028009847C046BC
:104A30007113002000200420554200000123037060
:104A400000487047487000104A780B7812021A43E9
:104A50008B7810B51B041A43CB781B0613439622A0
:104A6000D200934200D010BD0348FEF7A1FE002102
:104A7000030008009847C0465542000070B5184C26
:104A800082B006000D00200001A902F021F90028E3
:104A900008D1D0231B061B68019A9A421CD0200023
:104AA00002F026F9002001F09DFB002807D1032524
:104AB0006D42200002F0F4F8280002B070BD002022
:104AC00001F0AAFB0028F2D02A003100002001F0FA
:104AD000B3FB051EEBD0ECE703256D42ECE7C046C7
:104AE00054130020F0B54F46D6464646C0B5354B68
:104AF00082B007000D00180001A9994602F0E8F8FD
:104B0000002808D1D0231B061B68019A9A4252D074
:104B1000484602F0EDF8002001F064FB002842D086
:104B20000024002D44DD284B9A46984611E039199F
:104B3000002001F00DFC060000F0C8FC002001F090
:104B4000B5FBFCF7C9FB434618605960A419AC4299
:104B50002EDA002001F018FC2E1B0200B04200DD0E
:104B60003200002AE3D100F0B1FC002001F09EFBEE
:104B7000002001F037FB00281AD0002001F004FCCF
:104B80000028E4D1FCF7A8FB53460E001A685B68C6
:104B9000002184460D4812184B419E4208D8D6D1B8
:104BA0009445D4D904E000200021074B18605960D7
:104BB000484602F075F802B01CBC90469946A246E1
:104BC000F0BDC046541300207808002020A1070043
:104BD0001F2010B5FDF71CF9FA200021800010BD40
:104BE00010B5074C0021200002F072F8002800D117
:104BF00010BD00F06BFC200002F052F8F8E7C04650
:104C00005413002070B51E4B84B01B7801F0C0FD1A
:104C10001F201C49FDF70CF901211F20FDF7E6F8C4
:104C20001948FCF73FFCFCF727F90600FCF754FB9A
:104C3000FA2204000D000023920012196B419942E0
:104C400014D811D001210291002101910F493000A7
:104C50000091FCF715F90400631E9C41E4B20028A2
:104C600008D1200004B070BD9042EBD9012252421D
:104C7000D317E7E701210648FFF7EEFDF1E7C0464D
:104C8000B8720010E14B001054130020D14B0010FB
:104C9000F00200200048704714710010004870476F
:104CA000C070001010B5002806D1124B1248438086
:104CB000063BFF3B038010BD052818D80F4B800032
:104CC000C4580D480023811C04E001330A800231DE
:104CD000132B09D0E25C002AF7D1C02201335B001C
:104CE000920013439BB2E5E7CA239B00E2E7002052
:104CF000E1E7C04609040000880C0020287100107C
:104D0000F0B5982357464546DE464E46414AE0B543
:104D1000D75880243D0085B06402883B254003932A
:104D2000274214D00121392000223B4B2500195481
:104D3000597147315A541A7500200132374901F030
:104D40003BF88022364B92021A65364B0393FB06E2
:104D50000CD480235B011F423AD1BD4254D105B02F
:104D60003CBC90469946A246AB46F0BD294B9A6D95
:104D7000002A28D09A462A4BB946002601259B4690
:104D8000170003E06D000136202E1BD02F42F9D012
:104D90005346DB6D5B46682401229D6573085C43C6
:104DA00034239046B2435343E4181B4B9C4664445F
:104DB000200000F03DFA00281AD1AF4301366D0003
:104DC000002FE1D14F4680235B01039D1F42C4D0D9
:104DD0000022154900200A700E491D430A60013265
:104DE000012100F079FF80220D4B12031A65B4E710
:104DF0004346E269217900200093002301F004F882
:104E0000200000F0E1F9D8E7290008487940FCF7D4
:104E1000CDFDC04600001150B80C0020000010501D
:104E200000301150100001006E130020407100107E
:104E300010B501210520FCF7D9FF10BD094B10B5B5
:104E40000122197039210023074842544271473228
:104E500083540375002200213430013300F06EFAD0
:104E600010BDC0466E130020B80C00208022024BFB
:104E70005202DA647047C0460020115070B5050038
:104E800000F07AF905201F49FCF7D2FFD0221E4C12
:104E900000212000D200FFF7A9FB00231B4A1C4978
:104EA00013701C4A40201160802252006280A28050
:104EB000D03AA354184A6370E062E260352613606A
:104EC0000122A2554C36FF36268700262066243064
:104ED000265412491248A36021612270E38620649F
:104EE0000360E3633433E2540E4B61641A6480223E
:104EF0009205DA6490220C4928009950FFF7B6FF1A
:104F000070BDC046014D0010B80C00206E1300208B
:104F100080011050401300208400105000011050F8
:104F20008000105000001150101001000B785B063B
:104F300002D14B78052B09D0012139200022064BE4
:104F40005971195447311A755A547047034B1A78DE
:104F5000034B1A60F0E7C046B80C00206E13002027
:104F6000000011500A00F8B507234746CE46547991
:104F700010792340D4781B02A40703437F20A20F9B
:104F8000682480B589789446084091464443342289
:104F9000A046CE0972433D4D4244AA184FB211714A
:104FA000F943C90FD170414241415670907051711F
:104FB0006246012A5CD0402B5ED8342268217243BD
:104FC00041435218AA181100644630310C70D36264
:104FD000C100002F3CDB2E4C0027A4466144D16069
:104FE0000F6000283CD02B4CC100A4466144916066
:104FF000682434224443A4467243274F62443968EC
:10500000AA181161402B00D240233F22CB18134233
:1050100001D0934340333B60204B682259404B46BC
:105020009C0634230C43A021734342439B18EB1886
:105030009B6809060C431C6034235E433433584399
:10504000673B30182B5401200CBC90469946F8BDA4
:10505000134C0027A4466144D1600F6000280FD193
:10506000342300227343EB189A600E4A1A61E3E777
:105070008022D2009342A0D319000B48FCF796FC83
:10508000064CC100A44661449160B1E7B80C002011
:1050900084001050040010504013002000001050F5
:1050A00080001050000110505471001010B50C0019
:1050B000342011001A00E30958437F232340682459
:1050C0005C43044B0019C018012300F037F901209C
:1050D00010BDC046B80C002070B57F253420682371
:1050E0000D40CC096B4360430C4EC01830188378D8
:1050F000002B05D143785A425341094A0133936644
:1051000080220849120100F069F8342101234C4340
:1051100034314D4364193419237570BDB80C002027
:1051200000201150FFF7FFFF70B57F253420682362
:105130000D40CC096B4360430C4EC0183018837887
:10514000002B05D143785A425341094A01339366F3
:105150000022084900F042F8342100234C43343146
:105160004D4364193419237570BDC046B80C002036
:1051700000301150FFF7FFFF80220E4B520410B594
:105180001A600D4B0D491A6010008B689843FBD1D3
:105190000B4C9C2200212000FFF728FA80220021DE
:1051A00052010848FFF722FA092363670333A36714
:1051B00010BDC04600E0004000F0004000C00040CC
:1051C0000000115000001050002300213222838281
:1051D00081548361C36103628362704710B5C36801
:1051E000002901D01C682140002A11D08024E4004D
:1051F000114322420CD01A6822420BD1094A0A40BC
:105200001A60FFE7FFE7FFE7FFE7FFE7FFE7C36895
:10521000196010BD4378044A9B0081789A5803486E
:10522000FCF7C4FBFFFBFFFF040300207C710010B0
:10523000F8B5467D0400002E00D168E0C368C07850
:105240001D68AD05AD0D002843D1E369E918E161A2
:10525000A269551A402D2ED86B189B1A5F427B41CC
:105260002427DBB22562E3558A424DD34AD0002879
:1052700023D08022D2002A436179002902D08020E5
:1052800080010243012041406171002B02D0802344
:10529000DB011A43E1680B685B053DD4224B1340E8
:1052A0000B60FFE7FFE7FFE7FFE7FFE7FFE700200F
:1052B000E3681A60F8BD4025CEE7A36A2A009C4641
:1052C00020696144FFF798F984221202E35D2A43C2
:1052D000D2E7E269A36A94466344180021692A0070
:1052E000FFF78AF9E369E078E918E1610028AFD0B7
:1052F000236A9D42ACD20023012223622433A161A0
:10530000E254D7E73000D5E70848FCF74FFB817837
:10531000074A0848FCF74AFB6378054A9B00A178D6
:105320009A580548FCF742FBFFFBFFFFC8710010CD
:10533000040300209C7100107C71001070B5040003
:10534000002B49D0437D002B03D00023037532206E
:1053500023540023A261E361151C402A31D80123A4
:10536000ADB2521B637553425341242625220020BF
:10537000DBB22562A162A355A054E278002A22D0B4
:105380008022D2002A436179002902D08020800146
:105390000243012041406171002B02D08023DB01D8
:1053A0001A43E1680B685B0519D4114B13400B607D
:1053B000FFE7FFE7FFE7FFE7FFE7FFE7E3681A60C4
:1053C00070BD4025CBE72A002069FFF715F984223C
:1053D0001202A35D2A43D6E7FFF72AFFF0E76378BE
:1053E000044A9B00A1789A580348FCF7DFFAC046AC
:1053F000FFFBFFFF040300207C710010024B587874
:10540000431E9841C0B27047CC0B0020024B187865
:105410004007C00F7047C046CC0B0020F8B53722BC
:1054200000212148FFF7E2F8204C2000FCF73AF871
:105430001F4B1C601F4C20001830FCF741F8200067
:1054400001F09EFB1C4B1D4E1D4D1C60002E04D018
:105450002800FFF7F3FA1B4B186000242B78002E6E
:1054600019D0194E174F9C420FD319D133009847CA
:1054700001342B78E4B2A342F5D20020FFF7FEFC02
:105480000020FFF7D5FC0120F8BDE3003A681B1BA4
:105490009B009B58EBE700F087FF2B78002BECD0AC
:1054A00000231B68FFDEC046CC0B0020840B0020CD
:1054B000040C00200C030020080C00203D4A0010C2
:1054C0006C1300209C080020A9630010F0B5DE4694
:1054D00057464E464546E0B58BB001F069F90028C5
:1054E00000D122E1B24B07AD9A46B24B9B465346E0
:1054F0001E68B269EFF3108372B611680029FCD000
:10550000BFF35F8FF3612900300001F0ADF9B2699C
:105510000400F369BFF35F8F0021116083F31088EB
:10552000002800D101E16B78082BE0D85A469B0097
:10553000D3589F466B68002BD9D0A8689847D6E708
:105540007F2229799C4B0A405400C8091B191B185B
:105550001800012620304479B4434471447903365D
:10556000B4434471002A00D1E6E0944ADB7C002A6F
:1055700006D0934A1278934200D26DE19B1ADBB2B7
:10558000002B00D0D1E08F4C6A792878AB68A04717
:10559000ADE7894B0127984642461B7800203B43E4
:1055A00013702B78994600F095FD60232E793340D7
:1055B000602B0DD0402B00D1DAE0F606F60E012E5E
:1055C00000D154E1022E00D110E1002E00D1E1E023
:1055D00028780021FFF780FD80212878FFF77CFDE7
:1055E00085E7794B002B82D000E000BF7FE7774B47
:1055F000002B00D17BE7704B18780007C00F00E04C
:1056000000BF74E76E4E6D4A00243378002A00D143
:1056100098E06F4FA34208D8A34200D095E0013430
:10562000E4B2A34200D262E7F6D93968E2008C46C0
:10563000121B920062449269002AF0D028789047A9
:1056400001343378E4B2A342E4D250E73722002198
:1056500059482F78FEF7CAFF1022FF215D48FEF758
:10566000C5FF55481222FF211330FEF7BFFF00F09F
:1056700027FD534E514A00243378002A00D170E0B0
:10568000554A9046524A9146A34245D866D1434670
:105690003800984701343378E4B2A342F4D24F4B38
:1056A000002B00D123E700E000BF20E7424B372268
:1056B0009846002118002F78FEF798FF43461022E5
:1056C000D81CFF21FEF792FF40461222FF21133023
:1056D000FEF78CFF00F0F4FC394E384A0024337892
:1056E000002A35D03A4A91469C420CD336D13A4BE7
:1056F0003800984701343378E4B2A342F4D24246EA
:105700002B799370F3E64A461268E30094461B1B1C
:105710009B0063445B68EBE74A461268E3009446EB
:105720001B1B9B0063445B68B2E70BB03CBC90461C
:105730009946A246AB46F0BD6A792878AB6800F07E
:10574000DDFCD4E6002B00D1D1E600239B69FFDE0F
:10575000380000F065FE3378002BD0D000235B6862
:10576000FFDE380000F05CFE3378002B97D0F5E7C1
:105770001B4B002B00D12BE71A48002801D000F06A
:10578000A9FC484608A900E000BF0400002C00D096
:10579000ADE61DE7202B00D19AE0002B00D017E7E3
:1057A0006B79092B00D913E70F4A9B00D3589F460A
:1057B000080C0020F4710010CC0B00203D4A0010B2
:1057C0006C130020DD6500100000000000000000E8
:1057D0009C080020CF0B0020216400100000000076
:1057E0000000000000000000187200107F22297ADB
:1057F0000A400292082A00D9EAE6C8090190002B63
:1058000000D182E0002453000293019A029B944647
:105810004344C74A6344DB7C002A06D0C54A127859
:10582000934200D23BE19B1ADBB2002B00D02DE16A
:10583000C148C24E00F04EFC4846F36808A998479C
:10584000002800D122E160222B791A4200D04EE6D6
:10585000002000F03FFC4AE6DA00D31AB84A9B0069
:105860001268D318002B00D15FE75C698CE62B7AB5
:105870000F2B00D9ACE6AE4A4344DB78002A05D0B2
:10588000AC4A127893425ED39B1ADBB2002B00D055
:105890009EE6A948A94C00F01DFC4846E36808A90B
:1058A0009847002800D022E6602211002B79194089
:1058B0001A4200D08CE66B790A2B00D088E606AB42
:1058C0009A1C11700123484608A900F09DFB0EE6C2
:1058D0002B7A0F2B00D97BE6954A4344DB78002ACC
:1058E00006D0944A1278934200D202E19B1ADBB2AE
:1058F000002B00D06CE69048904C00F0EBFBE36886
:10590000484608A99847040040E76B790393012BA8
:1059100000D1D8E0032B00D1CBE0002B00D057E61C
:105920005300019A029394464344634420335B79C5
:1059300006AA9B07DB0F023213804846022308A900
:1059400000F062FB61E77E4ADC00E31A14689B000A
:10595000E418002C00D13BE620699CE7EB88012B82
:1059600000D035E6434608221B789343424648461A
:1059700008A9137000F030FBB9E5434602201978FE
:1059800006AB9A1C8B0689080140DB0F0B43138082
:105990004846022308A900F037FBA8E54346AA7948
:1059A00003925B78002B02D1002A00D0D0E043465E
:1059B000039A484608A95A7000F00EFB97E5434643
:1059C00006AA5B78023213704846012308A900F04A
:1059D0001BFB8CE5EB88A8791B0A0F2B00D9F7E598
:1059E000584A9B00D3589F4608A800F079FB4846C8
:1059F000A979FFF723FA434602221B781343424654
:105A0000137074E5EB88012B00D0E1E543460822D2
:105A10001B781343AAE74C4B002B00D1D8E500E0DC
:105A200000BF040006AB9E1C0222A11C3000FEF742
:105A3000E3FD22004846338808A900F0E5FA002873
:105A400000D054E5C4E5414B002B00D1C0E500E097
:105A500000BF021E00D1BBE54846137808A900F03C
:105A6000D3FAECE72989FFF71DF9021EF4D1AFE55F
:105A7000FFF714F9041ED5D1AAE5FFF70BF912239D
:105A8000020008A9484600F0BFFAD8E760222B7947
:105A90001A4200D07AE6002000F01CFB76E6284A85
:105AA000DE00F31A16689B00F618002EEED030695F
:105AB000C0E6EB88002B27D053000293484608A984
:105AC00000F08AFAA1E6EB88002BF5D14846FFF7F3
:105AD0002BFB019A029B94465B0002934344634470
